:020000040000FA
:020000002C28AA
:040002000034003492
:080008000B118B13A40003305F
:10001000A5008519152805191B2805182128850113
:1000200020086F20860085152628850121086F206D
:10003000860005152628850122086F2086000514F4
:100040002628850123086F2086008514EC30810066
:10005000250883002408090007309F00EC30810048
:10006000831601308600F030850081128111011461
:10007000811401158B178B16831285018601A0014F
:10008000A3010330A2000230A100051B6620051B5E
:10009000A30A23080A3A0319A301851B6620851BBE
:1000A000A30323080A3A0319A301051A6620051AB7
:1000B000A10A21080A3A0319A101061866200618A8
:1000C000A00A20080A3A0319A0014528FF30A6001B
:1000D000FF30A700A70B6A28A60B68280800820734
:1000E0007F340D34B7349F34CD34DB34FB340F34DC
:0400F000FF34CF34D6
:02400E00103F61
:00000001FF
