:020000040000FA
:100000008316FF308500F9308600C83081008312E6
:1000100007309F008B018501860106158610851D1E
:100020004620051C0F288614061146201820152886
:10003000061A1F20861A2820061B3D2008000615D8
:100040008610851D4620051C2128861406110800EF
:1000500005182D2805193528080006118610851D5C
:100060004620851C2F288614080006158610851D3D
:100070004620851C37288614080006158610851D25
:100080004620051D3F288614061108008614061414
:08009000851D482886100800B8
:0400980000340034FC
:02400E00103F61
:00000001FF
